{
  "_format": "hh-sol-artifact-1",
  "contractName": "Dappazon",
  "sourceName": "contracts/dappazon.sol",
  "abi": [
    {
      "inputs": [
        {
          "internalType": "uint256",
          "name": "",
          "type": "uint256"
        }
      ],
      "name": "logCount",
      "outputs": [
        {
          "internalType": "uint256",
          "name": "",
          "type": "uint256"
        }
      ],
      "stateMutability": "view",
      "type": "function"
    },
    {
      "inputs": [
        {
          "internalType": "uint256",
          "name": "timeStamp",
          "type": "uint256"
        },
        {
          "internalType": "string",
          "name": "place",
          "type": "string"
        },
        {
          "internalType": "uint256",
          "name": "order",
          "type": "uint256"
        }
      ],
      "name": "logDetail",
      "outputs": [],
      "stateMutability": "nonpayable",
      "type": "function"
    },
    {
      "inputs": [
        {
          "internalType": "uint256",
          "name": "",
          "type": "uint256"
        },
        {
          "internalType": "uint256",
          "name": "",
          "type": "uint256"
        }
      ],
      "name": "logs",
      "outputs": [
        {
          "internalType": "string",
          "name": "place",
          "type": "string"
        },
        {
          "internalType": "uint256",
          "name": "timeStamp",
          "type": "uint256"
        }
      ],
      "stateMutability": "view",
      "type": "function"
    }
  ],
  "bytecode": "0x608060405234801561001057600080fd5b506105f4806100206000396000f3fe608060405234801561001057600080fd5b50600436106100415760003560e01c8063340b0b9814610046578063621b63ee14610076578063732d3991146100a7575b600080fd5b610060600480360381019061005b919061036c565b6100c3565b60405161006d91906104b0565b60405180910390f35b610090600480360381019061008b91906103fc565b6100db565b60405161009e929190610480565b60405180910390f35b6100c160048036038101906100bc9190610395565b6101a4565b005b60006020528060005260406000206000915090505481565b600160205281600052604060002060205280600052604060002060009150915050806000018054600181600116156101000203166002900480601f0160208091040260200160405190810160405280929190818152602001828054600181600116156101000203166002900480156101945780601f1061016957610100808354040283529160200191610194565b820191906000526020600020905b81548152906001019060200180831161017757829003601f168201915b5050505050908060010154905082565b6101ac61024c565b604051806040016040528084815260200185815250905060008083815260200190815260200160002060008154809291906001019190505550806001600084815260200190815260200160002060008060008681526020019081526020016000205481526020019081526020016000206000820151816000019080519060200190610238929190610266565b506020820151816001015590505050505050565b604051806040016040528060608152602001600081525090565b828054600181600116156101000203166002900490600052602060002090601f016020900481019282601f106102a757805160ff19168380011785556102d5565b828001600101855582156102d5579182015b828111156102d45782518255916020019190600101906102b9565b5b5090506102e291906102e6565b5090565b5b808211156102ff5760008160009055506001016102e7565b5090565b600082601f83011261031457600080fd5b8135610327610322826104fc565b6104cb565b9150808252602083016020830185838301111561034357600080fd5b61034e838284610552565b50505092915050565b600081359050610366816105a7565b92915050565b60006020828403121561037e57600080fd5b600061038c84828501610357565b91505092915050565b6000806000606084860312156103aa57600080fd5b60006103b886828701610357565b935050602084013567ffffffffffffffff8111156103d557600080fd5b6103e186828701610303565b92505060406103f286828701610357565b9150509250925092565b6000806040838503121561040f57600080fd5b600061041d85828601610357565b925050602061042e85828601610357565b9150509250929050565b60006104438261052c565b61044d8185610537565b935061045d818560208601610561565b61046681610596565b840191505092915050565b61047a81610548565b82525050565b6000604082019050818103600083015261049a8185610438565b90506104a96020830184610471565b9392505050565b60006020820190506104c56000830184610471565b92915050565b6000604051905081810181811067ffffffffffffffff821117156104f2576104f1610594565b5b8060405250919050565b600067ffffffffffffffff82111561051757610516610594565b5b601f19601f8301169050602081019050919050565b600081519050919050565b600082825260208201905092915050565b6000819050919050565b82818337600083830152505050565b60005b8381101561057f578082015181840152602081019050610564565b8381111561058e576000848401525b50505050565bfe5b6000601f19601f8301169050919050565b6105b081610548565b81146105bb57600080fd5b5056fea26469706673582212206135ab36b18b30fc7535012ba89401d97d470e32d7a4c1579c2f352875845ed964736f6c63430007030033",
  "linkReferences": {},
  "deployedLinkReferences": {}
}